:100000000C945D000C9485000C9485000C94850084
:100010000C9485000C9485000C9485000C9485004C
:100020000C9485000C9485000C9485000C9485003C
:100030000C9485000C9485000C9485000C9485002C
:100040000C9411020C9485000C9481020C945B02B8
:100050000C9485000C9485000C9485000C9485000C
:100060000C9485000C9485000000000024002700FB
:100070002A0000000000250028002B0004040404CE
:100080000404040402020202020203030303030342
:10009000010204081020408001020408102001021F
:1000A00004081020000000080002010000030407FB
:1000B0000000000000000000270411241FBECFEF45
:1000C000D8E0DEBFCDBF11E0A0E0B1E0E6E6F9E0A8
:1000D00002C005900D92A631B107D9F721E0A6E143
:1000E000B1E001C01D92AE3BB207E1F710E0CDE5F3
:1000F000D0E004C02197FE010E94AB04CC35D107AB
:10010000C9F70E94B3020C94B1040C94000090E073
:10011000FC01EC55FF4F2491FC01E057FF4F349157
:10012000FC01E458FF4FE491EE23C9F0222339F09B
:10013000233001F1A8F4213019F1223029F1F0E047
:10014000EE0FFF1FEE58FF4FA591B4918FB7F894B3
:10015000EC91611126C030953E233C938FBF0895EA
:100160002730A9F02830C9F0243049F78091800069
:100170008F7D03C0809180008F7780938000DFCFD8
:1001800084B58F7784BDDBCF84B58F7DFBCF809125
:10019000B0008F778093B000D2CF8091B0008F7D78
:1001A000F9CF3E2BDACFCF93DF9390E0FC01E057FD
:1001B000FF4F249184589F4FFC0184918823D1F0F4
:1001C00090E0880F991FFC01E859FF4FA591B49169
:1001D000FC01EE58FF4FC591D49161110EC09FB73D
:1001E000F8948C91E22FE0958E238C932881E22362
:1001F000E8839FBFDF91CF9108958FB7F894EC917A
:10020000E22BEC938FBFF6CFAF92BF92CF92DF92EB
:10021000EF92FF920F931F93CF93DF936C017B01BB
:100220008B01040F151FEB015E01AE18BF08C0174C
:10023000D10759F06991D601ED91FC910190F081BF
:10024000E02DC6010995892B79F7C501DF91CF9182
:100250001F910F91FF90EF90DF90CF90BF90AF90E4
:100260000895FC01538D448D252F30E0842F90E0BC
:10027000821B930B541710F0CF96089501970895A1
:10028000FC01918D828D981761F0A28DAE0FBF2F6A
:10029000B11D5D968C91928D9F5F9F73928F90E0C0
:1002A00008958FEF9FEF0895FC01918D828D98172F
:1002B00031F0828DE80FF11D858D90E008958FEF6C
:1002C0009FEF0895FC01918D228D892F90E0805C35
:1002D0009F4F821B91098F739927089586E191E0C2
:1002E0000E94620121E0892B09F420E0822F089509
:1002F00080E090E0892B29F00E946E0181110C941E
:1003000000000895FC01A48DA80FB92FB11DA35AB8
:10031000BF4F2C91848D90E001968F739927848F25
:10032000A689B7892C93A089B1898C918370806448
:100330008C93938D848D981306C00288F389E02DE9
:1003400080818F7D80830895EF92FF920F931F939A
:10035000CF93DF93EC0181E0888F9B8D8C8D981378
:100360001AC0E889F989808185FF15C09FB7F89484
:10037000EE89FF896083E889F989808183708064D0
:1003800080839FBF81E090E0DF91CF911F910F911B
:10039000FF90EF900895F62E0B8D10E00F5F1F4F2A
:1003A0000F731127E02E8C8D8E110CC00FB607FC39
:1003B000FACFE889F989808185FFF5CFCE010E94C7
:1003C0008201F1CFEB8DEC0FFD2FF11DE35AFF4FB2
:1003D000F0829FB7F8940B8FEA89FB898081806255
:1003E000CFCFCF93DF93EC01888D8823B9F0AA8912
:1003F000BB89E889F9898C9185FD03C0808186FDE0
:100400000DC00FB607FCF7CF8C9185FFF2CF80812E
:1004100085FFEDCFCE010E948201E9CFDF91CF9120
:1004200008951F920F920FB60F9211242F933F93AE
:100430008F939F93AF93BF938091BA019091BB012B
:10044000A091BC01B091BD013091B90123E0230F0F
:100450002D3758F50196A11DB11D2093B901809348
:10046000BA019093BB01A093BC01B093BD018091F0
:10047000B5019091B601A091B701B091B801019674
:10048000A11DB11D8093B5019093B601A093B70152
:10049000B093B801BF91AF919F918F913F912F91F0
:1004A0000F900FBE0F901F90189526E8230F02960D
:1004B000A11DB11DD2CF1F920F920FB60F92112422
:1004C0002F933F934F935F936F937F938F939F935C
:1004D000AF93BF93EF93FF9386E191E00E94820177
:1004E000FF91EF91BF91AF919F918F917F916F910C
:1004F0005F914F913F912F910F900FBE0F901F90E2
:1005000018951F920F920FB60F9211242F938F936D
:100510009F93EF93FF93E0912601F0912701808153
:10052000E0912C01F0912D0182FD1BC09081809102
:100530002F018F5F8F7320913001821741F0E0917E
:100540002F01F0E0EA5EFE4F958F80932F01FF911F
:10055000EF919F918F912F910F900FBE0F901F9051
:1005600018958081F4CFCF93DF93CDB7DEB7A197F5
:100570000FB6F894DEBF0FBECDBF789484B582600D
:1005800084BD84B5816084BD85B5826085BD85B537
:10059000816085BD80916E00816080936E001092B5
:1005A0008100809181008260809381008091810030
:1005B00081608093810080918000816080938000C1
:1005C0008091B10084608093B1008091B00081601F
:1005D0008093B00080917A00846080937A0080914B
:1005E0007A00826080937A0080917A0081608093A3
:1005F0007A0080917A00806880937A001092C1001E
:10060000E0912601F091270182E08083E0912201B0
:10061000F09123011082E0912401F09125018FECEB
:10062000808310922E01E0912A01F0912B0186E047
:100630008083E0912801F09129018081806180838D
:10064000E0912801F0912901808188608083E09108
:100650002801F0912901808180688083E091280140
:10066000F091290180818F7D808360E08EE00E947F
:10067000D30061E089E00E94D30088248A9483E05B
:10068000982EA12CB12C9AE0C92ED12CE12CF12C62
:1006900020E0622E20E0722E80E480937C00809126
:1006A0007A00806480937A0080917A0086FDFCCF86
:1006B00080917800A0917900BA2FA82FB093B4014F
:1006C000A093B3012FEF30E00E94A404A501940190
:1006D0000E945404522E432E022F132F61E089E012
:1006E0000E94D3000115110509F050C060E089E0B7
:1006F0000E9487002090B3013090B401032C000CBD
:100700004408550857FE8DC06DE286E191E00E94D5
:10071000A40122273327A9012219330944095509C5
:1007200019A28E010F5D1F4FCA01B901A7019601E1
:100730000E947304605DF80162938F0121153105F9
:100740004105510589F70115110561F0019000205F
:10075000E9F73197AF01401B510BB80186E191E0F9
:100760000E94040142E050E062E171E086E191E024
:100770000E9404016114710409F48ECF0E946E017D
:10078000882309F489CF0E94000086CF0F3F11050E
:1007900011F461E0ACCFEDEAF0E08491833029F10F
:1007A00040F48130C1F08230D9F0003811058CF767
:1007B0009DCF873031F1883061F18430B1F780917D
:1007C0008000806280938000852D942D90938B0013
:1007D00080938A008FCF84B5806884BD57BC8ACF50
:1007E00084B5806284BD58BC85CF809180008068CC
:1007F00080938000852D942D9093890080938800AC
:1008000079CF8091B00080688093B0005092B3009F
:1008100071CF8091B00080628093B0005092B4009C
:1008200069CFA201910119A28E010F5D1F4FCA016C
:10083000B901A70196010E947304605DF8016293FB
:100840008F01211531054105510589F77CCFE6E17E
:10085000F1E01382128288EE93E0A0E0B0E084839E
:100860009583A683B78384E091E09183808385ECB0
:1008700090E09587848784EC90E09787868780EC6A
:1008800090E0918B808B81EC90E0938B828B82EC5B
:1008900090E0958B848B86EC90E0978B868B118E05
:1008A000128E138E148E0895052E97FB1EF400945D
:1008B0000E946B0457FD07D00E94730407FC03D00D
:1008C0004EF40C946B0450954095309521953F4F14
:1008D0004F4F5F4F089590958095709561957F4F2C
:1008E0008F4F9F4F0895A1E21A2EAA1BBB1BFD013B
:1008F0000DC0AA1FBB1FEE1FFF1FA217B307E407FF
:10090000F50720F0A21BB30BE40BF50B661F771F56
:10091000881F991F1A9469F7609570958095909536
:100920009B01AC01BD01CF010895A29FB001B39F0F
:10093000C001A39F700D811D1124911DB29F700DE8
:10094000811D1124911D08950E949504B7FF0895FB
:10095000821B930B0895EE0FFF1F0590F491E02D7D
:060960000994F894FFCF9A
:1009660000000000A40104013101F101620140010F
:0609760054010D0A00000F
:00000001FF
