:100000000C94D4000C94FC000C94FC000C94FC00A8
:100010000C94FC000C94FC000C94FC000C94FC0070
:100020000C94FC000C94FC000C94D1040C9443053B
:100030000C94FC000C94FC000C94FC000C94FC0050
:100040000C94FC000C94FC000C94FC000C94FC0040
:100050000C94FC000C94FC000C94FC000C948704A1
:100060000C94FC000C94FC000C94FC000C94FC0020
:100070000C94FC000C94FC000C94FC000C94FC0010
:100080000C94FC000C94FC000C94FC000C94FC0000
:100090000C941F030C94FC000C94FC000C94FC00CA
:1000A0000C94FC000C94FC000C94FC00AD02B0021B
:1000B0009F02A302A702D102D102D102B402B80268
:1000C000BC02C202C602D102CC02080B000202022C
:1000D00001000904000001020200000524001001D3
:1000E0000524010101042402060524060001070578
:1000F000810310004009040100020A000000070506
:1001000002024000000705830240000004030904C6
:1001100012010002EF02014041234180000101026F
:10012000030141726475696E6F204C4C430041724B
:100130006475696E6F2059756E000000000025001F
:1001400028002B002E0031000404040404030405DD
:100150000202020204030202020206060606060664
:10016000040402020204040408020110408040104A
:1001700020408040800802040180402010020110CD
:100180008010204040200000000200090F00000302
:100190000401000C0000000000000000000000004E
:1001A000000000000000A00911241FBECFEFDAE01C
:1001B000DEBFCDBF11E0A0E0B1E0EEE5F7E102C0A7
:1001C00005900D92A436B107D9F722E0A4E6B1E07C
:1001D00001C01D92AF39B207E1F710E0C4EDD0E0E5
:1001E00004C02197FE010E94A20BC33DD107C9F7AD
:1001F0000E94D0090C94AD0B0C94000080919602E3
:1002000081110DC082E08093920284E0809393027A
:10021000109295021092940281E08093960282E9F6
:1002200092E0089585ED8093BC008091BC0084FD30
:10023000FCCF10929901089540916F02262F30E073
:10024000240F311D21323105DCF420919901243035
:10025000C9F4FC0180E090E0861758F430916F02F9
:100260002191DC01A15BBD4FA30FB11D2C93019621
:10027000F3CF80916F02680F60936F0280E0089562
:1002800081E0089582E00895089508950895E09129
:10029000910180919001E81730F4F0E0E15DFD4FAD
:1002A000808190E008958FEF9FEF089590919101E4
:1002B00080919001981750F4E92FF0E0E15DFD4F37
:1002C000208130E09F5F9093910102C02FEF3FEFBC
:1002D000C90108958091900190E020919101821BC5
:1002E00091090895CF92DF92EF92FF920F931F939F
:1002F000CF93DF937C01CB018A0120918F012223D0
:1003000089F0EB016B01C40ED51ECC15DD0569F03B
:100310006991D701ED91FC910190F081E02DC70129
:100320000995F3CF642F0E941C01C801DF91CF9182
:100330001F910F91FF90EF90DF90CF900895CF9392
:10034000DF931F92CDB7DEB7698320918F012223FF
:10035000D1F020919201203240F021E030E0FC0108
:100360003383228380E090E015C080919301E82FD1
:10037000F0E0E159FE4F998190838F5F8093930164
:100380008093920105C061E0CE0101960E941C019C
:1003900081E090E00F90DF91CF9108953FB7F894FE
:1003A00080912B0290912C02A0912D02B0912E02EF
:1003B00026B5A89B05C02F3F19F00196A11DB11DC0
:1003C0003FBFBA2FA92F982F8827820F911DA11DFB
:1003D000B11DBC01CD0142E0660F771F881F991F38
:1003E0004A95D1F708950E94A80BDF92EF92FF92F1
:1003F0000F931F93CF93DF93D82EF92EE42E062F61
:1004000010E0C8010196880F0E94650983E00E94F0
:100410006509CD2DDF2D0C0F1D1FC017D10789F0E9
:10042000E7FE03C0FE01849101C088810E94650936
:10043000F82E80E00E9465098F2121968111EDCF71
:1004400001C081E0DF91CF911F910F91FF90EF905C
:10045000DF900895DF92EF92FF920F931F93CF9357
:10046000DF93D82E8A017B01E40EF51EEB01CE1539
:10047000DF0571F0D7FE03C0FE01849101C08881C1
:100480000E94650921968111F2CF8FEF9FEF01C085
:10049000C801DF91CF911F910F91FF90EF90DF90F6
:1004A00008950F931F93CF93DF931F92CDB7DEB7BD
:1004B00082E0898342E450E06AEC70E080E80E94C8
:1004C0002A020E94FE00DC0112960D911C911397E6
:1004D0000115110589F0D801ED91FC910280F3819D
:1004E000E02DBE016F5F7F4FC801099597FD04C0E5
:1004F000F80100851185ECCF89810F90DF91CF91B4
:100500001F910F91089590E0FC01EA57FE4F44912E
:10051000FC01E959FE4F2491FC01E85BFE4F8491F8
:10052000882309F44CC04423E1F150E0FA013197EB
:10053000EF30F105B0F5EA5AFF4F0C94A20B909101
:1005400080009F7707C0909180009F7D03C09091AD
:100550008000977F9093800024C094B59F7702C05D
:1005600094B59F7D94BD1DC0909190009F7707C06A
:10057000909190009F7D03C090919000977F909301
:1005800090000FC09091C0009F7703C09091C00071
:100590009F7D9093C00005C09091C200977F90937B
:1005A000C200E82FF0E0EE0FFF1FE65CFE4FA591C2
:1005B000B4918FB7F894EC91E22BEC938FBF089530
:1005C0002091C001211103C08FEF9FEF08955FB705
:1005D000F89422E02093E9002091F20030E0121616
:1005E000130614F421E030E0422FFC0184E6415070
:1005F00038F028988093BF019091F1009193F7CF44
:100600002115310521F08091F200882319F05FBF98
:10061000C90108958BE68093E800F9CF2FB7F894CD
:1006200083E08093E9009091E800892F807295FF24
:1006300004C09091F20080E4891B2FBF08951F929F
:100640000F920FB60F9211242F933F934F935F9306
:100650006F937F938F939F93AF93BF93EF93FF938A
:100660008091B900887F803609F49CC068F5883293
:1006700009F45BC090F4803109F454C038F4882345
:1006800009F4F6C0883009F44DC0F6C0883109F489
:100690004CC0803209F45DC0EFC0803409F468C0FA
:1006A00048F4803309F455C0883309F0E5C08093DD
:1006B0009801D8C0803509F44FC0883509F45DC071
:1006C000883409F0D9C0D6C0883909F4C7C0A8F465
:1006D000883709F467C038F4883609F463C0803776
:1006E00009F460C0C9C0883809F4B8C0803909F479
:1006F0005FC0803809F0C0C05BC0803B09F486C091
:1007000038F4803A09F466C0883A09F47FC0B4C06E
:10071000803C09F4A7C0883C09F4A4C0883B09F4D4
:100720008AC0AAC08091BE0110C09091BD01809185
:10073000BC01981770F5E091BD0181E08E0F8093A8
:10074000BD01F0E0E456FE4F80818093BB0085EC54
:1007500086C0809398018EC0E091BD0181E08E0F2C
:100760008093BD018091BB00F0E0E456FE4F808392
:100770009091BD018091BC016EC0E091BD0181E00E
:100780008E0F8093BD018091BB00F0E0E456FE4FD8
:10079000808380919B0181116DC081E080939A01DB
:1007A00084EA61C083E08093990110929102CFCFD7
:1007B00080919102803208F051C0E091910281E075
:1007C0008E0F809391028091BB00F0E0EF58FD4FB7
:1007D0008083BDCF85EC8093BC00109299018091FD
:1007E0009102803230F4E0919102F0E0EF58FD4F39
:1007F00010826091910270E0E0919601F091970172
:1008000081E792E009951092910236C084E08093CE
:1008100099011092700210926F02E0919401F09190
:100820009501099580916F02811105C081E0809347
:100830006F0210924F02E091700281E08E0F809360
:100840007002F0E0E15BFD4F80818093BB009091EE
:10085000700280916F02981708F479CF85E8809331
:10086000BC000AC085EC8093BC001092990104C0C2
:10087000109298010E941201FF91EF91BF91AF91E8
:100880009F918F917F916F915F914F913F912F91A8
:100890000F900FBE0F901F9018958F929F92AF925E
:1008A000BF92CF92DF92EF92FF926B017C010E9488
:1008B000CE014B015C01C114D104E104F104F1F05B
:1008C0000E94CE01DC01CB0188199909AA09BB0954
:1008D000883E9340A105B10570F321E0C21AD1080A
:1008E000E108F10888EE880E83E0981EA11CB11C77
:1008F000C114D104E104F10419F7DDCFFF90EF90AA
:10090000DF90CF90BF90AF909F908F9008951F92EF
:100910000F920FB60F9211242F933F938F939F93B3
:10092000AF93BF9380916B0190916C01A0916D0189
:10093000B0916E0130912A0223E0230F2D3720F46D
:100940000196A11DB11D05C026E8230F0296A11D29
:10095000B11D20932A0280936B0190936C01A093A8
:100960006D01B0936E0180912B0290912C02A091A9
:100970002D02B0912E020196A11DB11D80932B0274
:1009800090932C02A0932D02B0932E02BF91AF91B1
:100990009F918F913F912F910F900FBE0F901F90BD
:1009A00018951F920F920FB60F9211248F939F9359
:1009B0008091E1009091E100937F9093E10083FFAB
:1009C0000FC01092E90091E09093EB001092EC00C0
:1009D00092E39093ED001092C00198E09093F000A4
:1009E00082FF20C093E09093E9009091F200992358
:1009F00019F09AE39093E80090916A01992339F0F5
:100A000090916A01915090936A01992389F1909194
:100A1000BF01992339F09091BF0191509093BF018C
:100A2000992341F184FF10C08091E2008E7E8160A5
:100A30008093E2008091E1008F7E8093E1008091BD
:100A400069018E7E806111C080FF16C08091E20036
:100A50008E7E80618093E2008091E1008E7E8093A3
:100A6000E100809169018E7E81608093690104C0FC
:100A70005D9ACDCF289AD6CF9F918F910F900FBEC0
:100A80000F901F9018951F920F920FB60F9211247E
:100A9000CF92DF92EF92FF920F931F932F933F938A
:100AA0004F935F936F937F938F939F93AF93BF9376
:100AB000EF93FF93CF93DF93CDB7DEB76C97DEBF95
:100AC000CDBF1092E9008091E80083FFFBC168E090
:100AD000CE0145960E94930982EF8093E8008D89AC
:100AE00087FF05C09091E80090FFFCCF03C09EEF08
:100AF0009093E800982F907609F0C6C09E894F89A0
:100B0000588D2F89F88C91110CC0803829F4809170
:100B100068018093F10002C01092F1001092F10080
:100B200045C1913051F4811141C14130510509F065
:100B30003DC1809168018D7F0BC0933061F48111BC
:100B400035C14130510509F031C1809168018260A1
:100B5000809368012BC1953049F48091E80080FFB3
:100B6000FCCF822F80688093E30020C1963009F08B
:100B70005EC00B8D1C8D22E01092E900109267017F
:100B800010926601F21232C0109265011092640157
:100B90000E94510299E0BE016F5F7F4FDB01E92F98
:100BA0001D92EA95E9F79983FA8291E09E8390EA93
:100BB00098879AEF99872091660130916701275FA6
:100BC0003F4F3C832B838D831092E9001092670185
:100BD00010926601109365010093640149E050E0B2
:100BE00080E00E942A020E945102E0C01093650139
:100BF000009364010E94FE00DC0112960D911C918D
:100C000013970115110509F4BBC0D801ED91FC91B2
:100C10000480F581E02DBE016B5E7F4FC801099510
:100C2000009709F0C7C0F80100851185EACF973019
:100C300009F445C1983021F481E08093F100B6C0F9
:100C4000993009F0B3C0837009F039C1EDE0F1E0EB
:100C500081E031E096E32081211109C08EE7809385
:100C6000EA001092EA008F898093C0019FC08093B0
:100C7000E9003093EB0021912093EC009093ED007C
:100C80008F5F873041F7EACF8B8D9C8D1092E90002
:100C90001092670110926601909365018093640140
:100CA000898D811153C08E899D89913A49F4813291
:100CB00009F005C147E050E064E071E080E0BBC0AE
:100CC000913209F0FCC0833269F48F89988DA0E0DD
:100CD000B0E08093000190930101A0930201B093D2
:100CE000030164C0803269F48091E80082FFFCCF88
:100CF00067E084E091E00E9493098BEF8093E80025
:100D000055C0823209F052C08F8980930B01EEEFFB
:100D1000FFE7859194918B3F9C4D19F0E0E0F8E05E
:100D200002C0EEEFFAE08091040190910501A091DC
:100D30000601B0910701803B9440A105B10509F07F
:100D40009EC080910B0180FF79C099C00E94FE0077
:100D5000FC01028113810115110509F4B0C0D8010D
:100D6000ED91FC910190F081E02DBE016B5E7F4F13
:100D7000C801099581111AC0F80100851185EBCFD2
:100D8000F1E0FF1609F44EC0F3E0FF1298C08F891E
:100D9000882309F44AC0823089F440E86BE08EE28F
:100DA00091E00E94F501882309F489C08EEF8093B9
:100DB000E80088C018161906CCF381C0813029F4E8
:100DC00040E86BE082E291E0ECCF833009F077C03D
:100DD0000E94FE00DC011296ED90FC9013978E01AC
:100DE0000F5F1F4F6801E114F10479F0D701ED9115
:100DF000FC910680F781E02DB801C7010995080F25
:100E0000111DF701E084F184EECFD8011C92F601A8
:100E100001900020E9F73197BF016C197D0940E08E
:100E2000C601BFCF60E171E002C06CE071E0FB0180
:100E3000449150E080E80E942A02B8CFEE3F2AE0B9
:100E4000F20751F0808191818737A7E79A0721F057
:100E50009093FF0A8093FE0A87E797E79183808348
:100E600080916000809329029BE088E10FB6F8949E
:100E7000A895809360000FBE9093600097CF80810B
:100E800091818737974709F091CFA89580916000AD
:100E90008861809360008091290280936000EE3F1A
:100EA000BAE0FB0739F08091FE0A9091FF0A918326
:100EB00080837CCF1092FF0A1092FE0A77CF81E2E6
:100EC0008093EB006C960FB6F894DEBF0FBECDBFDB
:100ED000DF91CF91FF91EF91BF91AF919F918F9152
:100EE0007F916F915F914F913F912F911F910F9142
:100EF000FF90EF90DF90CF900F900FBE0F901F905C
:100F00001895CF92DF92EF92FF920F931F93CF939A
:100F1000DF936C017A018B01C0E0D0E0CE15DF05D4
:100F200081F0D8016D918D01D601ED91FC91019078
:100F3000F081E02DC6010995892B11F02196EECFA5
:100F40007E01C701DF91CF911F910F91FF90EF902C
:100F5000DF90CF900895CF93DF931F92CDB7DEB788
:100F60006983DC01ED91FC910280F381E02D41E089
:100F700050E0BE016F5F7F4F09950F90DF91CF91D9
:100F8000089583E08093E9008091F200882319F0AE
:100F90008AE38093E8000895FC018485958597FD98
:100FA0000BC09FB7F89482E08093E9008091F20033
:100FB0009FBF90E0019608959FB7F89482E08093D8
:100FC000E9008091F2009FBF90E00895089580E0CD
:100FD00090E008956115710579F0FB010190002002
:100FE000E9F73197AF01461B570BDC01ED91FC91FE
:100FF0000280F381E02D099480E090E008958F92C3
:101000009F92AF92BF92CF92DF92EF92FF920F9397
:101010001F93CF93DF936C017B018A0180910B01B9
:10102000882309F45CC08091C001882309F457C06B
:101030008091690180FF05C08091E000826080930B
:10104000E000E801B12C8AEFA82E93E0892E2AE374
:10105000922E209711F4BB20D9F10E940E0381112A
:101060000AC0AA94AA20D9F161E070E080E090E083
:101070000E944D04EECF282F30E0C217D3070CF4A6
:101080008C2F9FB7F8948092E9002091E80025FF0B
:101090001DC0282F30E0C21BD30BF701815020F078
:1010A00041914093F100FACFE20EF31EBB2019F0FC
:1010B0009092E8000AC08091E80085FD07C09092F8
:1010C000E800BB24B394209709F0B12C9FBFC1CF97
:1010D0005D9884E680936A011016110644F081E061
:1010E00090E0F6019383828380E090E001C0C80124
:1010F000DF91CF911F910F91FF90EF90DF90CF90F4
:10110000BF90AF909F908F9008950E940E0390E043
:1011100008950F931F93CF93DF931F92CDB7DEB740
:101120008C01FC018485958597FF0EC0CE01019648
:101130000E94E002019719F4898190E002C08FEFCC
:101140009FEFF80195878487F801848595850F9036
:10115000DF91CF911F910F910895CF93DF931F924D
:10116000CDB7DEB7FC018485958597FD05C02FEFCF
:101170003FEF358724870BC0CE0101960E94E00225
:10118000019719F4898190E002C08FEF9FEF0F90D3
:10119000DF91CF910895CF93FC01C48121E020938A
:1011A0008F01C0939E021092930110929201838549
:1011B000682B81EC91E00E949F0190919201913205
:1011C00008F045C0809199018111FCCF82E08093A5
:1011D000990181E080939B018FEF80939801109299
:1011E000BD019093BC01AFE6B1E0ECE9F1E080E035
:1011F000981721F02D9121938F5FFACF1092BE01A5
:101200008091BE01CC0FC82BC093BE0180919A0182
:10121000813061F410929A018091BE018093BB00ED
:101220008091BC0083FDF8CF85EC01C085EE8093F2
:10123000BC00809199018230E1F3809198018F3F49
:1012400031F080919801803211F0809198011092D4
:1012500093011092920110928F01CF9108950F93F4
:101260001F93CF938C01C62F0E94CB086C2F646014
:10127000C8010E94CB086C2F6B7FC8010E94CB086D
:1012800083EC90E00197F1F7CF911F910F910895B2
:101290000F931F93CF93DF938C01C62FD42F607FC2
:1012A000642B0E942F0980E1C89FB00111246D2B8F
:1012B000C801DF91CF911F910F910C942F0941E04C
:1012C0000E94480981E090E00895409166015091A4
:1012D0006701209164013091650142175307B4F40E
:1012E0009091E8009570E1F39091E80092FD19C0AB
:1012F0008093F100809166019091670101968F7350
:101300009927892B19F48EEF8093E800809166016C
:10131000909167010196909367018093660181E047
:10132000089580E00895615030F02091F100FC01B3
:1013300020830196F8CF289884E68093BF01089512
:10134000E1ECF1E01382128288EE93E0A0E0B0E0DD
:1013500084839583A683B78327E131E0318320839B
:10136000EDECF1E01382128284839583A683B78328
:1013700089E291E0918380838FEF9FEF9587848747
:10138000EDE1F2E0138212828BE391E0918380839E
:101390008FE3848380E1818782E0828713860895CA
:1013A000CF93DF93CDB7DEB7A1970FB6F894DEBF2A
:1013B0000FBECDBF789484B5826084BD84B5816052
:1013C00084BD85B5826085BD85B5816085BD809110
:1013D0006E00816080936E00109281008091810088
:1013E0008260809381008091810081608093810080
:1013F0008091800081608093800080919100826064
:101400008093910080919100816080939100809100
:1014100090008160809390008091C10084608093EF
:10142000C1008091C10082608093C1008091C100A1
:1014300081608093C1008091C30081608093C3006C
:101440008091C00082608093C0008091C200816062
:101450008093C20080917A00846080937A008091AA
:101460007A00826080937A0080917A008160809314
:101470007A0080917A00806880937A001092C0018F
:1014800010926801109269018091D7008160809369
:10149000D70080EA8093D80089B5806189BD89B57D
:1014A000826089BD09B400FEFDCF61E070E080E09C
:1014B00090E00E944D048091D8008F7C80618093E1
:1014C000D8008091E000807F8093E0008091E1006F
:1014D0008E7E8093E1008DE08093E200559A209A01
:1014E000109291011092900110929301109292012A
:1014F0001092990181E080939B0110929A0182E001
:101500000E94830283E00E9483028091B9008E7F53
:101510008093B9008091B9008D7F8093B90088E4F1
:101520008093B80085E48093BC0084E491E09093BC
:1015300095018093940185E491E0909397018093C5
:1015400096011092220280912702823018F098E0D2
:10155000909322028093250262E370E080E090E0A5
:101560000E944D04609128028DE192E00E94CB0818
:1015700068EE73E080E090E00E944D0460E38DE14E
:1015800092E00E942F090BE416E4C8010197F1F7DD
:1015900060E38DE192E00E942F09C8010197F1F705
:1015A00060E38DE192E00E942F0983E592E00197CC
:1015B000F1F760E28DE192E00E942F096091220232
:1015C000606240E08DE192E00E94480984E08093EF
:1015D000230240E06CE08DE192E00E94480940E087
:1015E00061E08DE192E00E9448090BE31FE1C80130
:1015F0000197F1F782E08093240240E066E08DE1FC
:1016000092E00E94480940E062E08DE192E00E9491
:101610004809C8010197F1F788E08093280260E04B
:101620008DE192E00E94CB086BE471E08DE192E0E5
:101630000E94EA0788EEC82E83E0D82EE12CF12C18
:101640009AE0492E512C612C712C20E0A22E20E032
:10165000B22E67E571E08DEC91E00E94EA0760E64A
:1016600071E08DEC91E00E94EA0788E0E3E4F1E0AC
:10167000DE01119601900D928A95E1F78091250285
:10168000811102C08FEF01C081E0FE013196E80FA9
:10169000F11DE80FF11D6081606840E08DE192E08E
:1016A0000E9448092FB7F89460916B0170916C010A
:1016B00080916D0190916E012FBFA70196010E944C
:1016C000800B19A28E010F5D1F4FCA01B901A30142
:1016D00092010E94800B605DF80162938F012115D9
:1016E00031054105510589F7BF018DE192E00E9466
:1016F000EA07A114B10409F4ACCF0E940000A9CFFD
:10170000A1E21A2EAA1BBB1BFD010DC0AA1FBB1F05
:10171000EE1FFF1FA217B307E407F50720F0A21B77
:10172000B30BE40BF50B661F771F881F991F1A94E4
:1017300069F760957095809590959B01AC01BD010E
:10174000CF010895EE0FFF1F0590F491E02D09944D
:0E17500081E090E0F8940C94AD0BF894FFCF7C
:10175E00FFFFFFFF00E100000000000000C18081DC
:10176E00000000000000009F017201E70746016AB9
:10177E00015601470100000000AB07FF078508C1B5
:10178E0007CC07AD088908000000005F098107E754
:10179E0007E607000040001400540048656C6C6FAB
:1017AE0020576F726C64005374617274696E6700B7
:0417BE000D0A000010
:00000001FF
