:100000000C9458000C9480000C9480000C94800098
:100010000C9480000C9480000C9480000C94800060
:100020000C9480000C9480000C9480000C94800050
:100030000C9480000C9480000C9480000C94800040
:100040000C94D2040C9480000C9442050C941C0572
:100050000C9480000C9480000C9480000C94800020
:100060000C94A4030C9480000000000025002800DC
:100070002B00040404040404040402020202020229
:10008000030303030303010204081020408001025C
:1000900004081020010204081020000000080002DB
:1000A00001000003040700000000000000007405C8
:1000B00011241FBECFEFD8E0DEBFCDBF11E0A0E01E
:1000C000B1E0E0E8FEE002C005900D92A035B10776
:1000D000D9F722E0A0E5B1E001C01D92A23CB20731
:1000E000E1F710E0C8E5D0E004C02197FE010E94CE
:1000F0003307C735D107C9F70E94BC050C943E07EA
:100100000C94000090E0FC01E656FF4F2491FC01A6
:10011000EA57FF4F3491FC01EE58FF4FE491EE2374
:10012000B1F1222339F1233091F038F42130A9F0D4
:10013000223001F584B58F7D12C0273091F0283030
:10014000A1F02430B9F4809180008F7D03C08091AC
:1001500080008F77809380000DC084B58F7784BD39
:1001600009C08091B0008F7703C08091B0008F7D6F
:100170008093B000F0E0EE0FFF1FE859FF4FA5910C
:10018000B4918FB7F894EC91E32BEC938FBF089563
:10019000FC01538D448D252F30E0842F90E0821B8D
:1001A000930B541710F0CF96089501970895FC0112
:1001B000918D828D981761F0828DDF01A80FB11D9E
:1001C0005D968C91928D9F5F9F73928F90E00895C2
:1001D0008FEF9FEF0895FC01918D828D981731F07C
:1001E000828DE80FF11D858D90E008958FEF9FEFD0
:1001F0000895FC01918D228D892F90E0805C9F4FA6
:10020000821B91098F7399270895FC01848DDF016A
:10021000A80FB11DA35ABF4F2C91848D90E0019679
:100220008F739927848FA689B7892C93A089B18968
:100230008C91837080648C93938D848D981306C009
:100240000288F389E02D80818F7D80830895EF926D
:10025000FF920F931F93CF93DF93EC0181E0888F80
:100260009B8D8C8D981305C0E889F989808185FD67
:1002700026C0F62E0B8D10E00F5F1F4F0F73112756
:10028000E02E8C8DE8120CC00FB607FCFACFE8897F
:10029000F989808185FFF5CFCE010E940501F1CF5C
:1002A0008B8DFE01E80FF11DE35AFF4FF0829FB7DF
:1002B000F8940B8FEA89FB89808180620AC09FB71E
:1002C000F894EE89FF896083E889F98980818370D9
:1002D000806480839FBF81E090E0DF91CF911F9188
:1002E0000F91FF90EF900895CF93DF93EC01888DED
:1002F0008823C9F0EA89FB89808185FD05C0A8892A
:10030000B9898C9186FD0FC00FB607FCF5CF8081AF
:1003100085FFF2CFA889B9898C9185FFEDCFCE01F9
:100320000E940501E7CFDF91CF91089589E192E026
:100330000E94F90021E0892B09F420E0822F089522
:1003400080E090E0892B29F00E94960181110C94A5
:100350000000089585ED8093BC008091BC0084FD71
:10036000FCCF1092E70108954091C101262F30E0A3
:10037000240F311D21323105DCF42091E7012430B6
:10038000C9F4FC0180E090E0861758F43091C10177
:100390002191DC01A156BE4FA30FB11D2C930196F4
:1003A000F3CF8091C101680F6093C10180E008958F
:1003B00081E0089582E00895089508950895E091F8
:1003C0009C0180919B01E81730F4F0E0E558FE4F66
:1003D000808190E008958FEF9FEF089590919C01A8
:1003E00080919B01981750F4E92FF0E0E558FE4FFB
:1003F000208130E09F5F90939C0102C02FEF3FEF80
:10040000C901089580919B0190E020919C01821B7D
:1004100091090895CF92DF92EF92FF920F931F936D
:10042000CF93DF937C01CB018A0120917A012223B3
:1004300089F0EB016B01C40ED51ECC15DD0569F00A
:100440006991D701ED91FC910190F081E02DC701F8
:100450000995F3CF642F0E94B401C801DF91CF91B9
:100460001F910F91FF90EF90DF90CF900895CF9361
:10047000DF931F92CDB7DEB7698320917A012223E3
:10048000D1F020919D01203240F021E030E0FC01CC
:100490003383228380E090E015C080919E01E82F95
:1004A000F0E0E65AFE4F998190838F5F80939E0122
:1004B00080939D0105C061E0CE0101960E94B401C8
:1004C00081E090E00F90DF91CF9108953FB7F894CD
:1004D0008091560190915701A0915801B091590116
:1004E00026B5A89B05C02F3F19F00196A11DB11D8F
:1004F0003FBFBA2FA92F982F8827820F911DA11DCA
:10050000B11DBC01CD0142E0660F771F881F991F06
:100510004A95D1F708958F929F92AF92BF92CF9252
:10052000DF92EF92FF926B017C010E9466024B0109
:100530005C01C114D104E104F104F1F00E946602EF
:10054000DC01CB0188199909AA09BB09883E9340AF
:10055000A105B10570F321E0C21AD108E108F10844
:1005600088EE880E83E0981EA11CB11CC114D10432
:10057000E104F10419F7DDCFFF90EF90DF90CF9009
:10058000BF90AF909F908F900895CF92DF92EF929F
:10059000FF920F931F93CF93DF936C017A018B012E
:1005A000C0E0D0E0CE15DF0581F0D8016D918D015E
:1005B000D601ED91FC910190F081E02DC6010995E5
:1005C000892B11F02196EECF7E01C701DF91CF91EB
:1005D0001F910F91FF90EF90DF90CF900895CF93F0
:1005E000FC01C48121E020937A01C0935001109254
:1005F0009E0110929D018385682B8DE092E00E9400
:10060000370290919D01913208F045C08091E70139
:100610008111FCCF82E08093E70181E08093E901C2
:100620008FEF8093E60110920B0290930A02AAE5E5
:10063000B1E0EAEEF1E080E0981721F02D912193EE
:100640008F5FFACF10920C0280910C02CC0FC82B56
:10065000C0930C028091E801813061F41092E801AE
:1006600080910C028093BB008091BC0083FDF8CF89
:1006700085EC01C085EE8093BC008091E70182305B
:10068000E1F38091E6018F3F31F08091E601803205
:1006900011F08091E60110929E0110929D0110923E
:1006A0007A01CF9108950F931F93CF938C01C62F9A
:1006B0000E94EF026C2F6460C8010E94EF026C2F51
:1006C0006B7FC8010E94EF0283EC90E00197F1F785
:1006D000CF911F910F9108950F931F93CF93DF93A5
:1006E0008C01C62FD42F607F642B0E94530380E1BE
:1006F000C89FB00111246D2BC801DF91CF911F91CC
:100700000F910C94530341E00E946C0381E090E050
:100710000895089580E090E008950E9439076115DA
:10072000710579F0FB0101900020E9F73197AF01E5
:10073000461B570BDC01ED91FC910280F381E02D0B
:10074000099480E090E008951F920F920FB60F92E7
:1007500011242F933F934F935F936F937F938F93C6
:100760009F93AF93BF93EF93FF938091B900887FDE
:10077000803609F49CC068F5883209F45BC090F4B7
:10078000803109F454C038F4882309F4F6C0883065
:1007900009F44DC0F6C0883109F44CC0803209F428
:1007A0005DC0EFC0803409F468C048F4803309F4B8
:1007B00055C0883309F0E5C08093E601D8C0803584
:1007C00009F44FC0883509F45DC0883409F0D9C0F8
:1007D000D6C0883909F4C7C0A8F4883709F467C0BF
:1007E00038F4883609F463C0803709F460C0C9C0A2
:1007F000883809F4B8C0803909F45FC0803809F03E
:10080000C0C05BC0803B09F486C038F4803A09F46C
:1008100066C0883A09F47FC0B4C0803C09F4A7C020
:10082000883C09F4A4C0883B09F48AC0AAC080911E
:100830000C0210C090910B0280910A02981770F57B
:10084000E0910B0281E08E0F80930B02F0E0E65105
:10085000FE4F80818093BB0085EC86C08093E601CB
:100860008EC0E0910B0281E08E0F80930B0280918D
:10087000BB00F0E0E651FE4F808390910B02809127
:100880000A026EC0E0910B0281E08E0F80930B0292
:100890008091BB00F0E0E651FE4F80838091E9013A
:1008A00081116DC081E08093E80184EA61C083E03A
:1008B0008093E7011092E501CFCF8091E50180326E
:1008C00008F051C0E091E50181E08E0F8093E501D1
:1008D0008091BB00F0E0EB53FE4F8083BDCF85ECF1
:1008E0008093BC001092E7018091E501803230F4E2
:1008F000E091E501F0E0EB53FE4F10826091E501DD
:1009000070E0E091C301F091C40185EC91E009959C
:100910001092E50136C084E08093E7011092C20195
:100920001092C101E091BF01F091C0010995809141
:10093000C101811105C081E08093C10110929F0126
:10094000E091C20181E08E0F8093C201F0E0E15698
:10095000FE4F80818093BB009091C2018091C101C4
:10096000981708F479CF85E88093BC000AC085EC1D
:100970008093BC001092E70104C01092E6010E942F
:10098000AA01FF91EF91BF91AF919F918F917F91BC
:100990006F915F914F913F912F910F900FBE0F90EC
:1009A0001F9018951F920F920FB60F9211242F933C
:1009B0003F938F939F93AF93BF93809152019091F8
:1009C0005301A0915401B09155013091510123E0A0
:1009D000230F2D3720F40196A11DB11D05C026E877
:1009E000230F0296A11DB11D209351018093520146
:1009F00090935301A0935401B093550180915601F7
:100A000090915701A0915801B09159010196A11DF3
:100A1000B11D8093560190935701A0935801B09354
:100A20005901BF91AF919F918F913F912F910F905D
:100A30000FBE0F901F9018951F920F920FB60F9236
:100A400011242F933F934F935F936F937F938F93D3
:100A50009F93AF93BF93EF93FF9389E192E00E943E
:100A60000501FF91EF91BF91AF919F918F917F9180
:100A70006F915F914F913F912F910F900FBE0F900B
:100A80001F9018951F920F920FB60F9211242F935B
:100A90008F939F93EF93FF93E0912902F0912A02A5
:100AA0008081E0912F02F091300282FD12C090818E
:100AB000809132028F5F8F7320913302821751F041
:100AC000E0913202F0E0E75EFD4F958F80933202B5
:100AD00001C08081FF91EF919F918F912F910F9095
:100AE0000FBE0F901F901895EDE0F2E01382128276
:100AF00088EE93E0A0E0B0E084839583A683B7837B
:100B00002CE031E031832083E9E1F2E013821282AC
:100B100084839583A683B7838EE191E0918380835C
:100B200085EC90E09587848784EC90E097878687B2
:100B300080EC90E0918B808B81EC90E0938B828BAA
:100B400082EC90E0958B848B86EC90E0978B868B83
:100B5000118E128E138E148EE6EBF2E01382128247
:100B600080E391E0918380838FE3848380E18187B8
:100B700082E0828713860895CF93DF93CDB7DEB7E7
:100B8000A1970FB6F894DEBF0FBECDBF789484B5A1
:100B9000826084BD84B5816084BD85B5826085BD79
:100BA00085B5816085BD80916E00816080936E0007
:100BB00010928100809181008260809381008091F9
:100BC00081008160809381008091800081608093AA
:100BD00080008091B10084608093B1008091B0006A
:100BE00081608093B00080917A00846080937A0065
:100BF00080917A00826080937A0080917A0081608F
:100C000080937A0080917A00806880937A001092B5
:100C1000C10010929C0110929B0110929E011092B3
:100C20009D011092E70181E08093E9011092E801B3
:100C300082E10E94820083E10E9482008091B900DB
:100C40008E7F8093B9008091B9008D7F8093B90029
:100C500088E48093B80085E48093BC008CED91E03B
:100C60009093C0018093BF018DED91E09093C401FA
:100C70008093C3011092BB028091C002823018F0B1
:100C800098E09093BB028093BE0262E370E080E044
:100C900090E00E948B026091C10286EB92E00E947C
:100CA000EF0268EE73E080E090E00E948B0260E368
:100CB00086EB92E00E9453030BE416E4C80101970F
:100CC000F1F760E386EB92E00E945303C8010197BD
:100CD000F1F760E386EB92E00E94530383E592E034
:100CE0000197F1F760E286EB92E00E945303609176
:100CF000BB02606240E086EB92E00E946C0384E0FD
:100D00008093BC0240E06CE086EB92E00E946C03B2
:100D100040E061E086EB92E00E946C030BE31FE190
:100D2000C8010197F1F782E08093BD0240E066E0E0
:100D300086EB92E00E946C0340E062E086EB92E07A
:100D40000E946C03C8010197F1F788E08093C1020B
:100D500060E086EB92E00E94EF0268E371E086EBD0
:100D600092E00E948F0388EEC82E83E0D82EE12CFB
:100D7000F12C9AE0892E912CA12CB12C64E471E025
:100D800089E192E00E948F036DE471E089E192E0D5
:100D90000E948F0388E0E0E0F1E0DE01119601900F
:100DA0000D928A95E1F78091BE02811102C08FEF0A
:100DB00001C081E0FE013196E80FF11DE80FF11D41
:100DC0006081606840E086EB92E00E946C032FB780
:100DD000F894609152017091530180915401909167
:100DE00055012FBFA70196010E94110719A28E017C
:100DF0000F5D1F4FCA01B901A50194010E9411079F
:100E0000605DF80162938F0121153105410551059F
:100E100089F7BF0186EB92E00E948F030E94A00138
:100E2000ADCFA1E21A2EAA1BBB1BFD010DC0AA1F4C
:100E3000BB1FEE1FFF1FA217B307E407F50720F043
:100E4000A21BB30BE40BF50B661F771F881F991FBE
:100E50001A9469F760957095809590959B01AC0107
:100E6000BD01CF010895EE0FFF1F0590F491E02D15
:100E7000099481E090E0F8940C943E07F894FFCF39
:100E800000004000140054000000000037020A0275
:100E90008A03DE010202EE01DF01000000002701EB
:100EA000C502C8007401F900D700EB000000000083
:100EB0008303C5028A03890348656C6C6F20576FF2
:100EC000726C64005374617274696E67000D0A007D
:00000001FF
