:100000000C945D000C9485000C9485000C94850084
:100010000C9485000C9485000C9485000C9485004C
:100020000C9485000C9485000C9485000C9485003C
:100030000C9485000C9485000C9485000C9485002C
:100040000C944B030C9485000C9485000C94850053
:100050000C9485000C9485000C9485000C9485000C
:100060000C9495030C9485000000000024002700E8
:100070002A0000000000250028002B0004040404CE
:100080000404040402020202020203030303030342
:10009000010204081020408001020408102001021F
:1000A00004081020000000080002010000030407FB
:1000B0000000000000000000B40411241FBECFEFB8
:1000C000D8E0DEBFCDBF11E0A0E0B1E0E8EAFDE09E
:1000D00002C005900D92A233B107D9F722E0A2E346
:1000E000B1E001C01D92A930B207E1F710E0CDE503
:1000F000D0E004C02197FE010E94CC06CC35D10788
:10010000C9F70E94D4040C94D2060C94000090E02D
:10011000FC01EC55FF4F2491FC01E057FF4F349157
:10012000FC01E458FF4FE491EE23C9F0222339F09B
:10013000233001F1A8F4213019F1223029F1F0E047
:10014000EE0FFF1FEE58FF4FA591B4918FB7F894B3
:10015000EC91611126C030953E233C938FBF0895EA
:100160002730A9F02830C9F0243049F78091800069
:100170008F7D03C0809180008F7780938000DFCFD8
:1001800084B58F7784BDDBCF84B58F7DFBCF809125
:10019000B0008F778093B000D2CF8091B0008F7D78
:1001A000F9CF3E2BDACFCF93DF9390E0FC01E057FD
:1001B000FF4F249184589F4FFC0184918823D1F0F4
:1001C00090E0880F991FFC01E859FF4FA591B49169
:1001D000FC01EE58FF4FC591D49161110EC09FB73D
:1001E000F8948C91E22FE0958E238C932881E22362
:1001F000E8839FBFDF91CF9108958FB7F894EC917A
:10020000E22BEC938FBFF6CF3FB7F8948091ED01CE
:100210009091EE01A091EF01B091F00126B5A89B5D
:1002200005C02F3F19F00196A11DB11D3FBFBA2F88
:10023000A92F982F8827BC01CD01620F711D811D48
:10024000911D42E0660F771F881F991F4A95D1F7CD
:1002500008958F929F92AF92BF92CF92DF92EF92CA
:10026000FF924B015C010E9404016B017C010E9422
:1002700004016C197D098E099F09683E7340810550
:100280009105A8F321E0821A9108A108B10888EE2F
:10029000C80E83E0D81EE11CF11C81149104A10456
:1002A000B10429F7FF90EF90DF90CF90BF90AF900F
:1002B0009F908F900895AF92BF92CF92DF92EF926E
:1002C000FF920F931F93CF93DF936C017B018B0100
:1002D000040F151FEB015E01AE18BF08C017D10750
:1002E00059F06991D601ED91FC910190F081E02DDA
:1002F000C6010995892B79F7C501DF91CF911F912F
:100300000F91FF90EF90DF90CF90BF90AF90089546
:100310000895089585ED8093BC008091BC0084FD14
:10032000FCCF1092E101089520919401260F33270C
:10033000331F21323105ECF42091E101FC0190E002
:1003400080E0243069F082E00895A0919401219129
:10035000AC014C585E4FA40FB52FB11D2C930196E4
:10036000861798F380919401680F6093940180E060
:10037000089581E008950895E091E5018091E401F8
:10038000E81730F4F0E0EC5AFE4F808190E00895D9
:100390008FEF9FEF08959091E5018091E4012FEF99
:1003A0003FEF981748F4E92FF0E0EC5AFE4F208118
:1003B00030E09F5F9093E501C90108958091E401C9
:1003C0009091E501891B990B0895CF92DF92EF92EE
:1003D000FF920F931F93CF93DF937C01CB018A0190
:1003E00020915301222389F0EB016B01C40ED51E2D
:1003F000CC15DD0569F06991D701ED91FC91019073
:10040000F081E02DC7010995F3CF642F0E9494017C
:10041000C801DF91CF911F910F91FF90EF90DF9076
:10042000CF900895CF93DF931F92CDB7DEB7698346
:10043000209153012223F9F02091E201203258F05B
:1004400021E030E0FC013383228390E080E00F90D4
:10045000DF91CF9108958091E301E82FF0E0ED5C0A
:10046000FE4F998190838F5F8093E3018093E20137
:1004700081E090E0ECCF61E0CE0101960E94940112
:10048000F7CFCF93FC01C48121E020935301C093A7
:1004900032011092E3011092E2018385682B81EF13
:1004A00091E00E9412029091E201913208F03FC067
:1004B0008091E1018111FCCF82E08093E10181E034
:1004C0008093E0018FEF8093B7011092D901909350
:1004D000D801A3E3B1E0E8EBF1E080E098132FC08E
:1004E0001092DA018091DA01CC0FC82BC093DA01A7
:1004F0008091DF01813039F51092DF018091DA01BE
:100500008093BB008091BC0083FDF8CF85EC809385
:10051000BC008091E1018230E1F38091B7018F3F0F
:1005200031F08091B701803211F08091B7011092C3
:10053000E3011092E20110925301CF9108952D91A1
:1005400021938F5FCBCF85EEE2CF089590E080E0DE
:1005500008950F931F93CF938C01C62F0E944102E1
:100560006C2F6460C8010E9441026C2F6B7FC80130
:100570000E94410283EC90E00197F1F7CF911F9127
:100580000F9108950F931F93CF93DF938C01D62F74
:10059000C42F607F642B0E94A90280E1D89FB00124
:1005A00011246C2BC801DF91CF911F910F910C94F6
:1005B000A902CF93DF93823028F0909102029860D5
:1005C000909302028093050262E370E080E090E085
:1005D0000E942901609108028DEF91E00E94410282
:1005E00068EE73E080E090E00E94290160E38DEF07
:1005F00091E00E94A902CBE4D6E4CE010197F1F785
:1006000060E38DEF91E00E94A9022197F1F760E38A
:100610008DEF91E00E94A90283E592E00197F1F746
:1006200060E28DEF91E00E94A90260910202606297
:1006300040E08DEF91E00E94C20284E080930302CB
:1006400040E06CE08DEF91E00E94C20240E061E08A
:100650008DEF91E00E94C202CBE3DFE1CE01019772
:10066000F1F782E08093040240E066E08DEF91E0D4
:100670000E94C20240E062E08DEF91E00E94C2025F
:100680002197F1F7DF91CF91089541E00E94C202D6
:1006900081E090E008951F920F920FB60F921124FF
:1006A0002F933F938F939F93AF93BF938091E901D3
:1006B0009091EA01A091EB01B091EC013091E80139
:1006C00023E0230F2D3758F50196A11DB11D20936E
:1006D000E8018093E9019093EA01A093EB01B093C4
:1006E000EC018091ED019091EE01A091EF01B091AC
:1006F000F0010196A11DB11D8093ED019093EE01D3
:10070000A093EF01B093F001BF91AF919F918F91B2
:100710003F912F910F900FBE0F901F90189526E8D4
:10072000230F0296A11DB11DD2CF1F920F920FB6BB
:100730000F9211242F933F934F935F936F937F9367
:100740008F939F93AF93BF93EF93FF938091B900E3
:10075000887F803609F44AC0F0F5883209F4A7C0D2
:1007600018F5803109F49BC0B8F4882309F4F9C066
:10077000883009F494C0FF91EF91BF91AF919F91A0
:100780008F917F916F915F914F913F912F910F903A
:100790000FBE0F901F901895883109F488C08032E1
:1007A00051F78093B70114C0803409F49DC040F420
:1007B0008033B9F38833F9F68093B70185ECB0C084
:1007C000803509F485C0883509F496C0883499F6D7
:1007D0000E948A01D0CF883909F48CC038F5883757
:1007E00029F050F4883611F0803729F683E08093A1
:1007F000E1011092B60157C0883809F47BC08039F6
:1008000019F0803809F0B7CF8091B601803208F036
:1008100071C0E091B60181E08E0F8093B6018091A6
:10082000BB00F0E0EA56FE4F80833DC0803B39F0CC
:10083000E0F4803A09F479C0883A09F09CCF84E06A
:100840008093E1011092950110929401E091DD01F5
:10085000F091DE0109958091940181110FC081E032
:10086000809394011092740109C0803C09F4A6CFD2
:10087000883C09F4A3CF883B09F07DCFE091950136
:1008800081E08E0F80939501F0E0EC58FE4F80815F
:100890008093BB00909195018091940129C0809133
:1008A000DA018093BB0085EC8093BC0064CF90910B
:1008B000D9018091D801981758F5E091D90181E0CC
:1008C0008E0F8093D901F0E0E854FE4F8081E9CF8C
:1008D000E091D90181E08E0F8093D9018091BB0016
:1008E000F0E0E854FE4F80839091D9018091D801C7
:1008F0009817C8F285E8D8CFE091D90181E08E0F32
:100900008093D9018091BB00F0E0E854FE4F8083D2
:100910008091E00181115CCF81E08093DF0184EA66
:100920008093BC001092E10126CF85EC8093BC003F
:100930001092E1018091B601803230F4E091B6016D
:10094000F0E0EA56FE4F10826091B60170E0E0914F
:10095000DB01F091DC0186E991E009951092B60186
:100960000ACF1092B70134CFE1EFF1E01382128287
:1009700088EE93E0A0E0B0E084839583A683B783FC
:100980008CE091E091838083EDEFF1E0138212829D
:100990008EE191E0918380838FE3848380E181877E
:1009A00082E0828713860895CF93DF93CDB7DEB7B9
:1009B000A1970FB6F894DEBF0FBECDBF789484B573
:1009C000826084BD84B5816084BD85B5826085BD4B
:1009D00085B5816085BD80916E00816080936E00D9
:1009E00010928100809181008260809381008091CB
:1009F000810081608093810080918000816080937C
:100A000080008091B10084608093B1008091B0003B
:100A100081608093B00080917A00846080937A0036
:100A200080917A00826080937A0080917A00816060
:100A300080937A0080917A00806880937A00109287
:100A4000C10061E089E00E94D30060E08EE00E9476
:100A5000D3001092E5011092E4011092E30110928C
:100A6000E2011092E10181E08093E0011092DF0148
:100A700061E082E10E94870061E083E10E948700DB
:100A80008091B9008E7F8093B9008091B9008D7FED
:100A90008093B90088E48093B80085E48093BC001B
:100AA00088E891E09093DE018093DD0189E891E090
:100AB0009093DC018093DB01109202028091070287
:100AC0000E94D90288E08093080260E08DEF91E0F7
:100AD0000E94410282E00E94D9024AE050E066E2B0
:100AE00071E08DEF91E00E945B01812C912C54010B
:100AF0008A942AE0C22ED12CE12CF12C30E0232E56
:100B000030E0332E88E0E0E0F1E0DE011196019064
:100B10000D928A95E1F780910502EFEF8111E1E0F6
:100B2000F0E0EE0FFF1F81E090E08C0F9D1FE80FBB
:100B3000F91F6081606840E08DEF91E00E94C20281
:100B400090E490937C0080917A00806480937A0096
:100B500080917A0086FDFCCF80917800A091790089
:100B6000BA2FA82F2FEF30E00E94C50620E034E016
:100B700040E050E00E947506722E632E022F132F64
:100B80001093E7010093E60161E089E00E94D30041
:100B90000115110509F04AC060E089E00E94870054
:100BA000A091E601B091E7012AE030E00E94C5067D
:100BB000A50194010E94750629013A0177FE81C0C2
:100BC00041E06DE28DEF91E00E94C20222273327BF
:100BD000A901241935094609570919A28E010F5D8B
:100BE0001F4FCA01B901A70196010E949406605DDA
:100BF000F80162938F01211531054105510589F7EF
:100C00000115110561F001900020E9F73197AF015E
:100C1000401B510BB8018DEF91E00E945B01211444
:100C2000310409F46FCF0E9400006CCF0F3F110513
:100C300011F461E0B2CFEDEAF0E08491833029F164
:100C400040F48130C1F08230D9F0003811058CF7C2
:100C5000A3CF873031F1883061F18430B1F78091D2
:100C60008000806280938000872D962D90938B006A
:100C700080938A0095CF84B5806884BD77BC90CF7F
:100C800084B5806284BD78BC8BCF80918000806801
:100C900080938000872D962D909389008093880003
:100CA0007FCF8091B00080688093B0007092B300D5
:100CB00077CF8091B00080628093B0007092B400D2
:100CC0006FCF19A28E010F5D1F4FCA01B901A70195
:100CD00096010E949406605DF80162938F012115D0
:100CE00031054105510589F78BCF052E97FB1EF481
:100CF00000940E948C0657FD07D00E94940607FCC2
:100D000003D04EF40C948C06509540953095219567
:100D10003F4F4F4F5F4F0895909580957095619527
:100D20007F4F8F4F9F4F0895A1E21A2EAA1BBB1B26
:100D3000FD010DC0AA1FBB1FEE1FFF1FA217B307A7
:100D4000E407F50720F0A21BB30BE40BF50B661FBD
:100D5000771F881F991F1A9469F760957095809581
:100D600090959B01AC01BD01CF010895A29FB001F8
:100D7000B39FC001A39F700D811D1124911DB29FCF
:100D8000700D811D1124911D08950E94B606B7FFB4
:100D90000895821B930B0895EE0FFF1F0590F491A9
:080DA000E02D0994F894FFCF47
:100DA8000000400014005400000000001202E50199
:100DB800A602BB01DE01CB01BC0100000000450317
:100DC8005B01A602A5024272696768746E65737357
:020DD800000019
:00000001FF
